:1000000002148F020009D20A32323202197375BC0F
:100010008F75DE2190FEA8744AF02202000643BAD2
:100020008090FEB2E044C0F090FECDE4F090FECBB4
:100030007460F090FECD74C0F090FEC4E4F09000C7
:1000400038E0FFA3E090FEDBCFF0A3EFF090FED20C
:100050007403F0A374E8F090FEB17480F090FEDDBC
:08006000F090FEC07401F022D3
:10006B0002000AE4900051F0A3F090FB47E030E768
:10007B001590FB49E0FEA3E0FDEEEDFF900051EE85
:10008B00F0A3EFF080127BFF7A1D7932121A7E906B
:10009B00006AE0FEA3E0FF22D3900052E094409070
:1000AB000051E0949C40127BFF7A1D7951121A7E0D
:1000BB0090006AE0FEA3E0FF2290FB47E030E616DB
:1000CB00E04440F07BFF7A1D7963121A7E90006A40
:1000DB00E0FEA3E0FF2290FB47E04480F0E0540FEA
:1000EB00FFBF0111900051E0FEA3E0FF90006AEE0C
:1000FB00F0A3EFF02290006AE0FEA3E0FF227C0366
:10010B007DCA12039AE47BE87A03F9F8120287227C
:10011B0002006BBB010689828A83E0225002E72230
:10012B00BBFE02E32289828A83E49322BB01068908
:10013B00828A83F0225002F722BBFE01F322EF8D5D
:10014B00F0A4A8F0CF8CF0A428CE8DF0A42EFE2224
:10015B00BC000BBE0029EF8DF084FFADF022E4CC88
:10016B00F875F008EF2FFFEE33FEEC33FCEE9DEC51
:10017B00984005FCEE9DFE0FD5F0E9E4CEFD22ED97
:10018B00F8F5F0EE8420D21CFEADF075F008EF2FE1
:10019B00FFED33FD4007985006D5F0F222C398FDD2
:1001AB000FD5F0EA22C2D5EC30E709B2D5E4C39DF6
:1001BB00FDE49CFCEE30E715B2D5E4C39FFFE49E53
:1001CB00FE12015BC3E49DFDE49CFC800312015B0A
:1001DB0030D507C3E49FFFE49EFE22C5F0F8A3E0F1
:1001EB0028F0C5F0F8E582158270021583E038F02F
:1001FB0022E88FF0A4CC8BF0A42CFCE98EF0A42C7D
:10020B00FC8AF0EDA42CFCEA8EF0A4CDA8F08BF0C8
:10021B00A42DCC3825F0FDE98FF0A42CCD35F0FCC6
:10022B00EB8EF0A4FEA9F0EB8FF0A4CFC5F02ECD92
:10023B0039FEE43CFCEAA42DCE35F0FDE43CFC2277
:10024B0075F008758200EF2FFFEE33FECD33CDCC6A
:10025B0033CCC58233C5829BED9AEC99E5829840ED
:10026B000CF582EE9BFEED9AFDEC99FC0FD5F0D6CA
:10027B00E4CEFBE4CDFAE4CCF9A88222B800C1B9F4
:10028B000059BA002DEC8BF084CFCECDFCE5F0CB32
:10029B00F97818EF2FFFEE33FEED33FDEC33FCEB6B
:1002AB0033FB10D703994004EB99FB0FD8E5E4F926
:1002BB00FA227818EF2FFFEE33FEED33FDEC33FC13
:1002CB00C933C910D7059BE99A4007EC9BFCE99A07
:1002DB00F90FD8E0E4C9FAE4CCFB2275F010EF2F4C
:1002EB00FFEE33FEED33FDCC33CCC833C810D7074C
:1002FB009BEC9AE899400AED9BFDEC9AFCE899F887
:10030B000FD5F0DAE4CDFBE4CCFAE4C8F922CFF454
:10031B00CFCEF4CECDF4CDCCF4CC22EB9FF5F0EADE
:10032B009E42F0E99D42F0E89C45F022E8600FEC1C
:10033B00C313FCED13FDEE13FEEF13FFD8F122E810
:10034B00600FEFC333FFEE33FEED33FDEC33FCD820
:10035B00F122ECF0A3EDF0A3EEF0A3EFF022A882D4
:10036B008583F0D083D08212038012038012038026
:10037B00120380E473E493A3C583C5F0C583C8C59A
:10038B0082C8F0A3C583C5F0C583C8C582C822EC5B
:10039B008EF0A4CCC5F0CCCDF8EFA4CEC5F02DFDDE
:1003AB00E43CFCE8A42EC8C5F03DFDE43CFCEFA406
:1003BB00FFE5F028FEE43DFDE43CFC22900054EF09
:1003CB00F0900056EBF0900055EDF07032A3E0FF8B
:1003DB0090005DE0FBA3E0FAA3E0F9EF120137FF19
:1003EB0090005AE0FBA3E0FAA3E0F9EF120137907B
:1003FB000057E0FBA3E0FAA3E0F9EF1201372290DC
:10040B000054E0FD75F02B84F975F02BA4FFC3EDC0
:10041B009FFFE495F0FE7C007D06120149AB07AA15
:10042B0006A3E0FFC374FF9FFFE49400FEA3E0FD6F
:10043B00120149EEFF3395E0900060EFF09000550C
:10044B00E0FF7E00AD03AC02120149EEFFC374FF67
:10045B009FFFE49400FEA3E0FD7C00120149EE90A7
:10046B000061F0AE02AF03C374FF9FFFE49EFE90EA
:10047B000055E0FD120149EEFFC374FF9FFFE494AA
:10048B0000FEA3E0FD120149EEFFAE01EE14604F3A
:10049B0014700302052714700302055F1470030226
:1004AB00059C240460030205D4900056E0FEA3E0F3
:1004BB00FBA3E0FAA3E0F9EE12013790005AE0FB40
:1004CB00A3E0FAA3E0F9EF120137900060E0FF9090
:1004DB00005DE0FBA3E0FAA3E0F9EF1201372290F5
:1004EB000061E0FF900057E0FBA3E0FAA3E0F9EF17
:1004FB00120137900056E0FF90005AE0FBA3E0FAA0
:10050B00A3E0F9EF120137900060E0FF90005DE08F
:10051B00FBA3E0FAA3E0F9EF12013722900060E0B1
:10052B00FE900057E0FBA3E0FAA3E0F9EE120137CF
:10053B00900056E0FE90005AE0FBA3E0FAA3E0F92E
:10054B00EE12013790005DE0FBA3E0FAA3E0F9EFB8
:10055B0012013722900060E0FF900057E0FBA3E010
:10056B00FAA3E0F9EF120137900061E0FF90005A17
:10057B00E0FBA3E0FAA3E0F9EF120137900056E09D
:10058B00FF90005DE0FBA3E0FAA3E0F9EF12013767
:10059B0022900057E0FBA3E0FAA3E0F9EF1201373A
:1005AB00900060E0FF90005AE0FBA3E0FAA3E0F9B3
:1005BB00EF120137900056E0FF90005DE0FBA3E0E7
:1005CB00FAA3E0F9EF12013722900056E0FFA3E007
:1005DB00FBA3E0FAA3E0F9EF120137900060E0FF14
:1005EB0090005AE0FBA3E0FAA3E0F9EF1201379079
:1005FB000061E0FF90005DE0FBA3E0FAA3E0F9EF00
:10060B0012013722E4900053F0A3F012151B7C105B
:10061B007D0012039AE47BE87A03F9F812028790C3
:10062B000055EEF0A3EFF0900000E004F0C36480FF
:10063B00948A500302079074FFF0E4900052F0E4A8
:10064B00900051F0900052E0FFC374099FFF90009F
:10065B0051E0FEC39F4003020711EE25E025E02485
:10066B0005F582E43400F583E0F8A3E0F9A3E0FAA2
:10067B00A3E0FBEE25E025E02401F582E43400F550
:10068B0083E0FCA3E0FDA3E0FEA3E0FFC31203267F
:10069B00506B900051E0FB25E025E02401F582E44E
:1006AB003400F583E0A3E0A3E0FFA3E0900053CF79
:1006BB00F0A3EFF0EB25E025E02405F582E4340010
:1006CB00F583E0FCA3E0FDA3E0FEA3E0FF90005167
:1006DB00E025E025E02401F582E43400F5831203E4
:1006EB005D900053E0FEA3E0FFE4FCFDEB25E0256D
:1006FB00E02405F582E43400F58312035D9000518C
:10070B00E004F002064F900052E004F0E064096050
:10071B000302064A900011E0FCA3E0FDA3E0FEA358
:10072B00E0FF90000DE0F8A3E0F9A3E0FAA3E02FBF
:10073B00FFEA3EFEE93DFDE83CFC900015E0F8A326
:10074B00E0F9A3E0FAA3E02FFFEA3EFEE93DFDE866
:10075B003CFCA3E0F8A3E0F9A3E0FAA3E02FFFEA47
:10076B003EFEE93DFDE83CFCE47B04FAF9F812029D
:10077B0087900029EEF0A3EFF0900029E0FEA3E0B4
:10078B00FF12171822900055E0FEA3E0FFE4FCFDDA
:10079B00C004C005C006C007900000E0FF3395E021
:1007AB00FEEF7802C333CE33CED8F92401F5827431
:1007BB00003EF583D007D006D005D00412035D228E
:1007CB0090005212035D900052E0FCA3E0FDA3E009
:1007DB00FEA3E0FF780112034AA804A905AA06AB01
:1007EB0007900052E0FCA3E0FDA3E0FEA3E0FF12A4
:1007FB000319EB5FFFEA5EFEE95DFDE85CFCA3120B
:10080B00035D900056E0FCA3E0FDA3E0FEA3E0FF38
:10081B007801120337EF5455FBEE5455FAED54554E
:10082B00F9EC5455F8900056E0FCA3E0FDA3E0FE74
:10083B00A3E05455FFEE5455FEED5455FDEC5455C5
:10084B00FCEF2BFFEE3AFEED39FDEC38FC90005639
:10085B0012035D900056E0FCA3E0FDA3E0FEA3E0D5
:10086B00FF7802120337EF5433FBEE5433FAED5497
:10087B0033F9EC5433F8900056E0FCA3E0FDA3E011
:10088B00FEA3E05433FFEE5433FEED5433FDEC5432
:10089B0033FCEF2BFFEE3AFEED39FDEC38FC90000C
:1008AB005612035D900056E0FCA3E0FDA3E0FEA30F
:1008BB00E0FF7804120337900056E0F8A3E0F9A3A9
:1008CB00E0FAA3E02FFFEA3EFEE93DFDE83CFCEF3A
:1008DB00540FFFEE540FFEED540FFDEC540FFC9034
:1008EB00005612035D900056E0F8A3E0F9A3E0FA7E
:1008FB00A3E0FBC000900056E0FCA3E0FDA3E0FEEC
:10090B00A3E0FF7808120337D000EB2FFFEA3EFE7F
:10091B00E93DFDE83CFC90005612035D900056E06B
:10092B00F8A3E0F9A3E0FAA3E0FBC000900056E0C7
:10093B00FCA3E0FDA3E0FEA3E0FF7810120337D089
:10094B0000EB2FFFEA3EFEE93DFDE83CFC90005634
:10095B0012035D900056E0FCA3E0FDA3E0FEA3E0D4
:10096B00543FFFE4FEFDFC90005612035D900056D1
:10097B00E0A3E0A3E0A3E0FF22300718900029E0FA
:10098B00FCA3E0FD900036E0FB7A007F007E0112B5
:10099B0015A480237F027E01121A20BEFF19BFFF10
:1009AB0016900029E0FCA3E0FD900036E0FB7A00F6
:1009BB007F007E011215A4C28CC28EE490005CF005
:1009CB00FBFD7F011217FAE4900036F090006EE009
:1009DB00FEA3E0FF1219E9E4900078F0900076F0A6
:1009EB00A3F07BFF7A1D79B2121A7EC210121789FF
:1009FB0043AF8090FB477480F090FB45E0547FF051
:100A0B00740DF043870200000000D28CD28E438E0F
:100A1B001012136CEF6402609E7BFF7A1D79BF127C
:100A2B001A7E53AF7F90FB45E0547FF07425F0E0C6
:100A3B004480F07F057E00121A9B20084243C110B0
:100A4B0020B224200821D28ED296D29730090BC225
:100A5B000912060F120B35120F08300ADDC20A12EB
:100A6B001136120DD380D3300908C209120B35127F
:100A7B000F08300A05C20A120DD3300CBDC20C2070
:100A8B0008030209C280030209C2D2101217897F20
:100A9B00007E01121A20900029EEF0A3EFF07F02E6
:100AAB007E01121A20900036EFF0E025E0243AF593
:100ABB0082E43400F583E0FFA3E0900038CFF0A38D
:100ACB00EFF0900038E0FEA3E0FFC374E89FFF74E3
:100ADB00039E90FEDBF0A3EFF07BFF7A1D79D4121F
:100AEB001A7E7BFF7A1D79DE121A7E7BFF7A1D79C7
:100AFB00F4121ADD900029E0FEA3E0FF1212D37B63
:100B0B00FF7A1D79FA121ADD900036E0FF7E001293
:100B1B0012D37BFF7A1E7905121ADD90FB52E0FE91
:100B2B00A3E0FDEEEDFF1212D322E4900051F0A2F0
:100B3B000FB39210200229A2019200A21092012061
:100B4B00010B300008D203900034F08013E49000C6
:100B5B002EF0A312036900000000E4900033F02292
:100B6B00200303020C8690002EE0FBC3942040036D
:100B7B00020C31D202A3E0FCA3E0FDA3E0FEA3E054
:100B8B00FF780112034A90002F12035D201003021D
:100B9B000C2590002FE0FCA3E0FDA3E0FEA3E044B6
:100BAB0001FFEEEDEC90002F12035D900033E0049B
:100BBB00F0E0C394084068E4F07F01FEFDFC741F75
:100BCB009BF9F812034AEF24FFFFEE34FFFEED34DE
:100BDB00FFFDEC34FFFCC004C005C006C00790004D
:100BEB002FE0FCA3E0FDA3E0FEA3E0FF90002EE0CE
:100BFB00FBC3741F9BF9F812034AD003D002D00138
:100C0B00D000EB4FFFEA4EFEE94DFDE84CFCA31282
:100C1B00035D90002E741FF08005E4900033F0907C
:100C2B00002EE004F022C202C203E490002EF0A3D7
:100C3B00E0FCA3E0FDA3E0FEA3E0FF1207CB9000D6
:100C4B0051EFF01460211460251460292403702BDC
:100C5B00900034E004F0C394024007900037740511
:100C6B00F022D202D203229000377401F0229000BE
:100C7B00377402F0229000377403F022900054EB8B
:100C8B00F0A3E4F0A3EFF0AF05A3E4F0A3EFF07B48
:100C9B00FE7A01900078E0146074147003020D4228
:100CAB00147003020D9D24036003020DBD900076AA
:100CBB00E0FCA3E0FD900055E0FEA3E0FF1201492C
:100CCB00AD03AC0212015B900072EFF0900076E086
:100CDB00FCA3E0FD900057E0FEA3E0FF120149AD3D
:100CEB0003AC0212015B900073EFF0900076E47599
:100CFB00F0011201E6FEE5F0F44E6003020DBD902B
:100D0B00007804F0E4900076F0A3F0020DBD9000A3
:100D1B0076E475F0011201E6FEC3E5F094FEEE9465
:100D2B00015003020DBD9000787402F0900076E440
:100D3B00F0A374FFF0807B900076E0FCA3E0FD90C5
:100D4B000055E0FEA3E0FF120149AD03AC02120116
:100D5B005B900072EFF0900076E0FCA3E0FD90005A
:100D6B0057E0FEA3E0FF120149AC02AD0312015B99
:100D7B00900073EFF090007674FFF5F01201E645EA
:100D8B00F0702F9000787403F0E4900076F0A3F0ED
:100D9B008020900076E475F0011201E6FEC3E5F0C9
:100DAB00946DEE9401400BE4900078F0900076F097
:100DBB00A3F0900072E0FDA3E0FB900054E09000E4
:100DCB005CF07F011217FA2212006E90006CEEF0AD
:100DDB00A3EFF0900067E0147003020E7A14700317
:100DEB00020EBB147003020EDF24036003020F0715
:100DFB00300E097FE87E03121A9BC20E90006EE044
:100E0B00FEA3E0FF7C007D7F12039AA804A905AA2C
:100E1B0006AB0790006CE0FEA3E0FFE4FCFDEB2FBC
:100E2B00FFEA3EFEED39FDEC38FC780712033790F4
:100E3B00006EEEF0A3EFF090006EE0FEA3E0FF1269
:100E4B000109900070EEF0A3EFF0900070E0FEA3AC
:100E5B00E0FFC390006DE09F90006CE09E50069009
:100E6B0000677401F0E4900068F0A3F0C20F2290C9
:100E7B000070E0FEA3E0FFC390006DE09F90006C5C
:100E8B00E09E5025D20F900068E475F0011201E648
:100E9B00FEC3E5F094B8EE940B4061E4900068F06B
:100EAB00A3F09000677403F0229000677402F022A5
:100EBB00900070E0FEA3E0FFD390006DE09F9000E8
:100ECB006CE09E4008C20FE4900067F02290006730
:100EDB007401F022C20FE4900068F0A3F0D20E90E0
:100EEB00006CE0FFA3E090006ECFF0A3EFF0E49076
:100EFB000067F07BFF7A1D7920121A7E2230042CBA
:100F0B00900037E064016004E0B40220900035E00B
:100F1B00A3F0C204E025E0243AF582E43400F58323
:100F2B00E0FFA3E0900038CFF0A3EFF0900037E0A4
:100F3B0014601B14604A147003020FD124FE600668
:100F4B0002100A02100AA208B3920802100A300F0C
:100F5B0008300805D20502100A900036E075F00A39
:100F6B0084E5F004F0E025E0243AF582E43400F562
:100F7B0083E0FFA3E0900038CFF0A3EFF002100A5C
:100F8B00300F07300804D2068075900036E0B401AC
:100F9B0005740AF08069900036E02408FFE433FE04
:100FAB007C007D0A12015BAF05ED04F0E025E02427
:100FBB003AF582E43400F583E0FFA3E0900038CFEC
:100FCB00F0A3EFF08039200413300810900036E0C6
:100FDB00900035F0A3740AF0D2048008900035E03D
:100FEB00A3F0C204900036E025E0243AF582E43405
:100FFB0000F583E0FFA3E0900038CFF0A3EFF09073
:10100B00002BE0B40524900036E0D39408401B7409
:10101B0008F0E025E0243AF582E43400F583E0FFA4
:10102B00A3E0900038CFF0A3EFF0E4900037F0226C
:10103B00E4900050F0121AF0121A60121B201200EA
:10104B000E12191F121ACA12001E1218647F0D12EB
:10105B001B01D2101217897BFF7A1C7979121A7E29
:10106B007BFF7A1C7994121ADD900070E0FEA3E0EE
:10107B00FF1212D32008051209848008200705D21D
:10108B0010121789200903021124C209D207120674
:10109B000F120B35120F08121627900050E004F0B8
:1010AB00C39421407420B2097BFF7A1C79AB121ACE
:1010BB007E7BFF7A1C79BB121ADD900029E0FEA320
:1010CB00E0FF1212D37BFF7A1C79C9121ADD900054
:1010DB0036E0FF7E001212D37BFF7A1C79DC121AEA
:1010EB00DD900038E0FEA3E0FF1212D37BFF7A1CE9
:1010FB0079EE121ADD90006CE0FEA3E0FF1212D322
:10110B007BFF7A1D7905121ADD90006EE0FEA3E0DD
:10111B00FF1212D3E4900050F0300A08C20A1211E9
:10112B0036120DD343C11002107F22E4FF9000361C
:10113B00E0C3940A40047F02800C200503300604B0
:10114B007F018002E4FFEF14601614606D240260CF
:10115B0003021207900029E0FEA3E0FF1218C6223B
:10116B00900039E02402FF900038E03400FEEF7865
:10117B0002CEC313CE13D8F9FF9000577401F0A31E
:10118B007400F0A37451F0A37401F0A37400F0A3E6
:10119B007452F0A37401F0A37400F0A37453F07BAA
:1011AB007F7DFF1203C7900051E0FDA3E0FBA3E09E
:1011BB0090005CF07F011217FA229000577401F037
:1011CB00A37400F0A37451F0A37401F0A37400F0A6
:1011DB00A37452F0A37401F0A37400F0A37453F042
:1011EB007B7F7DFF7FF21203C7900051E0FDA3E0F0
:1011FB00FBA3E090005CF07F011217FA2242002C57
:10120B00044C4200290E7441002B00410000FF608A
:10121B00280001000000000000000000000000009A
:10122B0000000000000000000000000000000000B3
:10123B000000000000000000000000C108C107C151
:10124B0089C18AC10BC10DC10C41007900410078E5
:10125B0000420076000042007405AAC10F42006EE6
:10126B000000420070000042006C0000410067006B
:10127B004200680000C10E42006A7530420038001F
:10128B0064C105C106410036014100370056003AE2
:10129B0000000055008200CB0117016D01CC0254F8
:1012AB0002AD030703E841002E0044002F000000AD
:1012BB0000C100C101C102C1034100330041003430
:1012CB0000C1044100350000900051EEF0A3EFF097
:1012DB007B017A00795990005AEBF0A3EAF0A3E96D
:1012EB00F0E4120137EF4E701790005AE0FBA37435
:1012FB00FFF5F01201E6A9F0FA74301201378048BD
:10130B00900051E0FEA3E0FFD39400EE9400403830
:10131B007C007D0A12015BED2430FF90005AE0FB4C
:10132B00A374FFF5F01201E6A9F0FAEF1201379062
:10133B000051E0FEA3E0FF7C007D0A12015B9000F0
:10134B0051EEF0A3EFF080B890005AE0FBA3E0FA67
:10135B00A3E0F9121ADD7F0D121B717F0A121B71AC
:10136B0022E4900051F090FB49E0FEA3E0FDEEED8E
:10137B00FF90006CEEF0A3EFF090FB47E030E7102E
:10138B00E04480F07BFF7A1D7976121A7E7F002273
:10139B0020B20C7BFF7A1D7989121A7E7F01227B8A
:1013AB00FF7A1D799C121A7EE4900051F090006E2A
:1013BB00E0FEA3E0FF7C007D7F12039AA804A90541
:1013CB00AA06AB0790006CE0FEA3E0FFE4FCFDEB8C
:1013DB002FFFEA3EFEED39FDEC38FC7807120337A0
:1013EB0090006EEEF0A3EFF0900051E004F0E0B44B
:1013FB0064BB7F022290005BEEF0A3EFF07B017ADF
:10140B00007963900064EBF0A3EAF0A3E9F0E41237
:10141B000137EF4E7017900064E0FBA374FFF5F0FB
:10142B001201E6A9F0FA7430120137804890005B84
:10143B00E0FEA3E0FFD39400EE940040387C007DE7
:10144B000A12015BED2430FF900064E0FBA374FFF4
:10145B00F5F01201E6A9F0FAEF12013790005BE00C
:10146B00FEA3E0FF7C007D0A12015B90005BEEF0B7
:10147B00A3EFF080B8900064E0FBA3E0FAA3E0F9DF
:10148B00121ADD22787FE4F6D8FD7581220214D67C
:10149B0002103BE493A3F8E493A34003F68001F21C
:1014AB0008DFF48029E493A3F85407240CC8C33352
:1014BB00C4540F4420C8834004F456800146F6DF21
:1014CB00E4800B0102040810204080901208E47E97
:1014DB00019360BCA3FF543F30E509541FFEE49316
:1014EB00A360010ECF54C025E060A840B8E493A3DD
:1014FB00FAE493A3F8E493A3C8C582C8CAC583CA08
:10150B00F0A3C8C582C8CAC583CADFE9DEE780BEBF
:10151B007F0F121A41900057EEF0A3EFF090002CC2
:10152B00E0B4042DA3E0B44C28121B6890002CEE01
:10153B00F0A3EFF07BFF7A1E7913121ADD90002CCB
:10154B00E0FEA3E0FF1214007BFF7A1E791D121A36
:10155B007ED3900058E09400900057E09400403008
:10156B0090002CE0FEA3E0FF7C037DE812039AC001
:10157B0006C007900057E0FEA3E0FFFBAA06E4F9C4
:10158B00F8D007D006120287900059EEF0A3EFF0C7
:10159B00900059E0FEA3E0FF22900051EEF0A3EF84
:1015AB00F0A3EEF0A3EFF02401FFE43EA3F0A3EFD2
:1015BB00F0ECA3F0A3EDF0900051E0FCA3E0FD24D0
:1015CB0002FEE43C900059F0A3CEF0ED2403FEE4C0
:1015DB003CA3F0A3CEF0EAF9AF03AC07900051E0C7
:1015EB00FEA3E0FF121B5EA3E0FEA3E0FF900057FB
:1015FB00E0FD121B3B900055E0FEA3E0FF9000586E
:10160B00E0FD121B3BA3E0FEA3E0FFAD01121B3B71
:10161B00A3E0FEA3E0FFAD04121B3B22200F04C28C
:10162B0005C20630052BC3900039E094E8900038D2
:10163B00E09403500EA3E02405FF900038E0340043
:10164B00FE80047E037FE8900038EEF0A3EFF0807D
:10165B002C300629D3900039E09400900038E094A8
:10166B0000400EA3E024FBFF900038E034FFFE8027
:10167B00047E007F00900038EEF0A3EFF09000386E
:10168B00E0FEA3E0FFC374E89FFF74039E90FEDBB4
:10169B00F0A3EFF022EFB4221443A20C43CE109030
:1016AB00FE33E054F7F043B21053B1EF22EFB428FE
:1016BB001443A20843CE1090FE34E054FDF043B423
:1016CB000153B3FE22EFB4171443A20443CE109080
:1016DB00FE32E054EFF04396085395F722EFB40D2A
:1016EB001453A2F343CE1090FE31E054EFF043922B
:1016FB00085391F722EFB4361353A2F343CE109055
:10170B00FE33E054F7F043CA1053C9EF22C3EF94F2
:10171B00A0EE940F4006E490002BF022C3EF94D878
:10172B00EE940E400790002B7401F022C3EF94103F
:10173B00EE940E400790002B7402F022C3EF9448F6
:10174B00EE940D400790002B7403F022C3EF94B876
:10175B00EE940B400790002B7404F022C3EF94BE61
:10176B00EE940A400790002B7405F022C3EF94BE51
:10177B00EE940A500890002B7406F0C20822301029
:10178B003453AF7F90FB45E0547FF07425F0E04479
:10179B0080F0D296D29790FE13E04410F0D2909046
:1017AB00FEC0E04401F07F057E00121A9BD28CD262
:1017BB008E438E1022C296C29790FE13E054EFF028
:1017CB00C29090FEC0E054FEF07F017E00121A9B87
:1017DB00C2B3C293C28CC28E538EEF43AF8090FBC9
:1017EB00477480F090FB45E0547FF0740DF022A914
:1017FB0007E4FEEEC399505DAC03E4FAEC30E70767
:10180B007FF8121B5380057FC0121B53EC25E0FCA5
:10181B000AEAB408E7AC05E4FAEC30E7077FF81204
:10182B001B5380057FC0121B53EC25E0FC0AEAB466
:10183B0008E790005CE0FCE4FAEC30E7077FF81275
:10184B001B5380057FC0121B53EC25E0FC0AEAB446
:10185B0008E70E809E121B2E2243BA8090FB407429
:10186B0002F090FB427426F0A37403F090FB4774D4
:10187B00C0F090FB44740DF090FB48E4F043B6804D
:10188B0090FB4574A5F07F057E00121A9B12006E2B
:10189B0090006CEEF0A3EFF090006CE0FFA3E090F3
:1018AB00006ECFF0A3EFF090006EE0FEA3E0FF120E
:1018BB000109900070EEF0A3EFF022D3EF9468EEE5
:1018CB00941040067E107F68800DC3EF94BEEE949B
:1018DB000A50047E0A7FBEEF2442FFEE34F5FE7CF5
:1018EB00007DFF12039AC006C007900074E0FEA3B0
:1018FB00E0FFFBAA06E4F9F8D007D006120287EF47
:10190B00901B7993FFFEC374FF9FFFE4FCAD06FBB6
:10191B00120C872243BA80E4F5947593FF90FE3046
:10192B00F07592C9759136A37402F0E4F59675952E
:10193B00FFA3F075B20A75B1F5A37407F090FE130F
:10194B007405F0E4F5B475B3FF90FE34F0F5CA7589
:10195B00C9FFA3F0D2B1D2B0C29090FE13E054EF06
:10196B00F0C296C297C2B322C0E0C0F0C083C0825F
:10197B00C0D075D000C000C001C002C003C004C0FD
:10198B0005C006C007D2091219B0D007D006D00582
:10199B00D004D003D002D001D000D0D0D082D083DD
:1019AB00D0F0D0E032300F07E4900079F0C20C3069
:1019BB00B21020080D900079E0D3943C5004E00461
:1019CB00F02230B21120080E900079E0D3943C4005
:1019DB0005E4F0D20C22E4900079F0C20C22C21084
:1019EB0090FB45E030E706E0547FF0D2101201097E
:1019FB00900070EEF0A3EFF0900070E090FB52F0CF
:101A0B00900070E0A3E090FB53F030100790FB4583
:101A1B00E04480F022AD07AC06EF2401FFE43EABBF
:101A2B0007FAAF05121B47EF7D00FCAE02AF0312A6
:101A3B001B47ECFEEF22EF540F4480F5BC43BC4038
:101A4B0000000000E5BC30E5FB53BCDFAFBDEFFE93
:101A5B00ADBEEDFF22538E3D758801E4F589758A85
:101A6B00A0758C15758BF0758DD8C28DC28FC28CFD
:101A7B00C28E2212011EFF600C121B71740129F918
:101A8B00E43AFA80EE7F0D121B717F0A121B712252
:101A9B00EF1F70011E144E600F007508207509288A
:101AAB00D509FDD508FA80E82275F51875C7808F22
:101ABB00C4EEF5C375C65A75C6A5000000002275A5
:101ACB009850438E01438E0475D6FF75D7FA538E0B
:101ADB00EF2212011EFF600C121B71740129F9E435
:101AEB003AFA80EE2243BA80D28875A88B75C1373B
:101AFB0090FE06E4F02253A2F343BA8075CDC07575
:101B0B00CED41216A022E4F5C7F5C5F5C675C38071
:101B1B00F5C4F5C22290FE04E04480F075ABFF756E
:101B2B00AAFE22E4FEE4FF121B530EEEB428F622AB
:101B3B008DC275C502121AB4121B112275C5011282
:101B4B001AB4AFC2121B11228FCFE5CD30E7FB7554
:101B5B00CDC02275C503121AB4121B112290FDE7DA
:101B6B00E0FEA3E0FF228F993099FDC2992200007D
:101B7B00000000000000010101010101010202024D
:101B8B000202030303030404040405050506060609
:101B9B00070708080809090A0A0A0B0B0C0C0D0D9C
:101BAB000E0E0F0F10101111121213131415151610
:101BBB0016171818191A1A1B1C1C1D1E1E1F202065
:101BCB002122232324252626272829292A2B2C2D9D
:101BDB002E2E2F30313233343535363738393A3BB8
:101BEB003C3D3E3F404142434445464748494A4BB2
:101BFB004C4D4E4F5051525354565758595A5B5C9B
:101C0B005D5F6061626364666768696B6C6D6E6F64
:101C1B00717273747677787A7B7C7E7F8081838414
:101C2B008687888A8B8C8E8F919293959698999AAA
:101C3B009C9D9FA0A2A3A5A6A8A9ABACAEAFB1B229
:101C4B00B4B5B7B8BABCBDBFC0C2C3C5C7C8CACC90
:101C5B00CDCFD0D2D4D5D7D9DADCDEE0E1E3E5E6DF
:101C6B00E8EAECEDEFF1F3F4F6F8FAFBFDFF496E61
:101C7B00697469616C697A65204F4B2C4E6F7720C4
:101C8B0053687574646F776E00546F7563686B651A
:101C9B0079205468726573686F6C642069733A00BD
:101CAB004E6F77204368617267696E672E2E2E0028
:101CBB0043757272656E7420566261743A00437597
:101CCB007272656E742050574D204C6576656C3A78
:101CDB000043757272656E742050574D20447574B5
:101CEB00793A0043757272656E7420546F75636830
:101CFB004B657920446174613A0043757272656E6D
:101D0B007420546F7563684B657920426173656C01
:101D1B00696E653A00544B20657272726F723A5459
:101D2B00696D656F757400544B2073616D706C69D0
:101D3B006E6720696E74657276616C20746F6F20AC
:101D4B0073686F727400544B20726573756C7420DA
:101D5B00696E76616C696400544B20726573756CA7
:101D6B0074206F766572666C6F770057616B657563
:101D7B007020427920546F7563686B6579005761E9
:101D8B006B657570204279204368617267696E6775
:101D9B000057616B6575702042792049524333328D
:101DAB006B54696D6572004D4355205368757464AF
:101DBB006F776E0053797374656D20576169746921
:101DCB006E67205374617274004D435520537461D8
:101DDB007274005265616420454550524F4D20721C
:101DEB006573756C7420697300564241543A004414
:101DFB007574794C6576656C3A00544B20434D50A5
:101E0B002056616C75653A004247562052656164F5
:051E1B003A006D5600C5
:00000001FF
